:10000000002000101D010000950100009501000076
:1000100000000000000000000000000000000000E0
:10002000000000000000000000000000950100003A
:1000300000000000000000009501000071040000B5
:100040009501000095010000950100009501000058
:100050009501000095010000950100009501000048
:100060009501000095010000950100009501000038
:100070009501000095010000950100005507000062
:100080009501000095010000950100009501000018
:100090009501000095010000950100009501000008
:1000A00095010000950100009501000095010000F8
:1000B00095010000950100009501000095010000E8
:1000C00080B500AF00F02AF8C046BD4680BDC046EE
:1000D00080B500AF0B4B00221A600B4B23221A6035
:1000E0000A4B0A4A126880218A431A60084B01228F
:1000F0001A60084B03221A60074B01221A60C0469F
:10010000BD4680BD408004400880044038820440E1
:1001100044800440708004407480044080B584B002
:1001200000AF174BFB60174BBB60174A154BD31A38
:100130007B6007E0BB685A1CBA60FA68511CF96022
:1001400012781A707B685A1E7A60002BF2D10F4B1E
:10015000BB600F4A0D4BD31A7B6004E0BB685A1C8E
:10016000BA6000221A707B685A1E7A60002BF5D1A3
:10017000FFF7AEFF01F012FDC046BD4604B080BDE2
:1001800018460000000000107C0000107C000010E9
:100190001802001080B500AFFEE7C04680B500AF82
:1001A000084B084A126808490A431A60074B0022A4
:1001B0001A60074B80221A60064B00221A60C04664
:1001C000BD4680BD80800440400001005040044096
:1001D00000800050FC3F005080B500AF024B8022F1
:1001E0001A60C046BD4680BDFC3F005080B500AFE0
:1001F000024B00221A60C046BD4680BDFC3F005045
:1002000080B500AF144B144A1268802149020A439A
:100210001A60124B01221A60114B31221A600E4BE8
:100220000D4A1268802149010A431A600D4B0122D0
:100230001A600D4B83221A600C4B4E221A600C4B35
:1002400000221A60084B03221A600A4B01221A602E
:10025000C046BD4680BDC04680800440A8400440E2
:10026000A4400440988004400C800040008000407E
:10027000048000400880004080B500AF024B1B683E
:10028000DBB21800BD4680BD0080004080B500AFE5
:10029000034B1B681A00012313401800BD4680BDA4
:1002A0001480004080B582B000AF0200FB1D1A70C0
:1002B000FB1D1B780A2B08D1C046124B1B6820225D
:1002C0001340FAD0104B0D221A60C0460D4B1B682C
:1002D00020221340FAD00C4BFA1D12781A60FB1D35
:1002E0001B780D2B08D1C046064B1B6820221340FB
:1002F000FAD0054B0A221A60FB1D1B781800BD4678
:1003000002B080BD148000400080004080B500AF86
:10031000C046FFF7BBFF031EFBD0034B1B68DBB2DD
:100320001800BD4680BDC0460080004080B584B046
:1003300000AF78600F23FB187A6812781A700DE00E
:100340000F23FB181B781800FFF7ACFF7B68013305
:100350007B600F23FB187A6812781A700F23FB1842
:100360001B78002BECD1C046BD4604B080BDC04612
:1003700080B586B000AF7860F0237B6104233B61D9
:100380007B687A691A403B69DA400E23FB181A80B1
:100390000E23FB180E22BA18128830321A800E2350
:1003A000FB181B88392B06D90E23FB180E22BA180E
:1003B000128807321A800E23FB181B88DBB2180044
:1003C000FFF770FF3B69043B3B617B691B097B6165
:1003D0007B69002BD4D1C046BD4606B080BDC04667
:1003E00090B58FB000AF78600823FB181F4A13CA7E
:1003F00013C313CA13C313CA13C312681A600023AA
:100400007B6302E07B6B01337B630823FB187A6B11
:100410009200D2587B689A42F4D820E000233B63D4
:100420000AE00823FB187A6B9200D3587A68D31A33
:100430007B603B6B01333B630823FB187A6B9200B4
:10044000D2587B689A42ECD93B6B30333B633B6BB1
:10045000DBB21800FFF726FF7B6B01337B637B6BFE
:10046000092BDBDDC046BD460FB090BD5C3D0000F2
:1004700080B500AF034B1B685A1C024B1A60C04684
:10048000BD4680BD7C00001080B582B000AF7860B2
:10049000084B00221A60084B7A68013A1A60074B31
:1004A00000221A60034B07221A60C046BD4602B004
:1004B00080BDC04610E000E014E000E018E000E07D
:1004C00080B584B000AF7860074B1A687B68D3189A
:1004D000FB6000E030BF044B1B68FA689A42F9DC0D
:1004E000C046BD4604B080BD7C00001080B500AFA2
:1004F000022000F003F8C046BD4680BD90B587B02D
:1005000000AF0200FB1D1A70674B674A126867490B
:100510000A401A60644BFA1D127852B2120201218D
:100520000A431A60624B624A126860490A401A60C4
:100530005F4BFA1D127852B2120201210A431A606F
:100540005C4B5C4A126820210A431A605A4B5A4A93
:10055000126802210A431A601723FB180F221A702F
:100560001723FB181B787F2B0AD8544B1722BA1875
:10057000127811001F220A40012191400A001A60DE
:100580001623FB180F221A7000233B611623FB1859
:100590001B787F2B2ED84A4BFB601623FB181B7849
:1005A0005BB29B089B00FA68D3181622BA1812781F
:1005B00052B292089200F9688A18126816217918C6
:1005C0000978080003210140C900FF20884001008C
:1005D000C94311403A699201FF2010401622BA180F
:1005E0001278140003222240D200904002000A43F5
:1005F0001A6033E0334BBB601623FB181B781A00DC
:100600000F231340083B9B089B00BA68D31816229F
:10061000BA18127811000F220A40083A9208920084
:10062000B9688A1812681621791809780800032118
:100630000140C900FF2088400100C94311403A69C8
:100640009201FF2010401622BA18127814000322DB
:100650002240D200904002000A431A601523FB1882
:100660000F221A701523FB181B787F2B0AD8164B04
:100670001522BA18127811001F220A400121914058
:100680000A001A608023DB0540221A600F4B2C22DF
:100690001A600F4B16221A600E4B16221A60C046C3
:1006A000BD4607B090BDC04630400440FCFCFFFF93
:1006B00034400440808004400480044080E200E034
:1006C00000E400E01CED00E000E100E01800004064
:1006D000100000401400004080B582B000AF786088
:1006E000074B7A681A60064B1B6800221A74802335
:1006F000DB0520221A60C046BD4602B080BDC04660
:100700008000001080B582B000AF8023DB0514228A
:100710001A600E4B08221A60FB1D0F221A70FB1D77
:100720001B787F2B0DD80A4BFA1D127811001F225F
:100730000A40012191400A001A60BFF34F8FBFF3B6
:100740006F8FC046BD4602B080BDC0461800004055
:1007500080E100E080B582B000AF00237B60AD4B4C
:100760001B68F82213407B607B68582B00D94DE151
:100770007B689A00A84BD3181B689F468023DB0533
:1007800014221A60A54B08221A60A54B1B68FF2291
:100790001A743AE1A34AA24B1B681B785900A04B7C
:1007A0001B685B781800012303400B431360802310
:1007B000DB0504221A60994B28221A60984B1A68AC
:1007C000974B1B685B889380954B1B68944A126813
:1007D0009268DA6019E1934A914B1B681B785900C3
:1007E0008F4B1B685B781800012303400B43136099
:1007F0008023DB0504221A60884B28221A60884B6C
:100800001B68874A12685269DA60854B1A68844B04
:100810001B681B8B9380F8E0814B1B68DB7E002BF1
:1008200008D08023DB0514221A607D4B1B6801224F
:100830001A740EE07B4A7A4B1B68DB681B781360E6
:100840008023DB0504221A60754B1B68DA680132CD
:10085000DA60724B08221A60D7E0714B1B68DB7EAE
:10086000002B04D08023DB0524221A6007E08023BC
:10087000DB0514221A606A4B1B68FF221A74674B4F
:1008800008221A60C1E0664B1B689A88013A92B24E
:100890009A80634B1B689B88002B3CD1604B1B6884
:1008A0001B7F002B08D05E4B1B6801225A708023EF
:1008B000DB0524221A603DE0594B1B689B7E5BB22E
:1008C000002B1FD0564B1B68554A12685269DA60DC
:1008D000534B1A68524B1B681B8B9380504B1B6801
:1008E00000229A764F4A4E4B1B68DB681B781360D8
:1008F0008023DB0504221A60494B1B68DA68013249
:10090000DA6017E08023DB0514221A60444B1B6871
:1009100001221A740EE0434A414B1B68DB681B78C6
:1009200013608023DB0504221A603D4B1B68DA68E4
:100930000132DA60394B08221A6066E08023DB0559
:1009400014221A60354B08221A60354B1B68FF22AF
:100950001A745AE08023DB0524221A602F4B0822E8
:100960001A6052E02E4B1B689B88012B03D12B4B46
:100970000C221A6049E08023DB0504221A60274B11
:1009800008221A6041E08023DB0514221A60234B01
:1009900008221A60224B1B68FF221A7435E0204B94
:1009A0001B68DA681F4B1B68DBB213701C4B1B689B
:1009B0009A88013A92B29A80194B1B689B88012B46
:1009C00003D1164B0C221A6006E08023DB050422BB
:1009D0001A60124B08221A60114B1B68DA68013248
:1009E000DA6012E00E4B1B68DA680E4B1B68DBB254
:1009F00013708023DB0514221A60084B08221A604A
:100A0000074B1B6801221A74C046C046C046BD464B
:100A100002B080BD04000040843D0000180000408A
:100A2000800000100800004080B584B000AF0200D4
:100A30003960FB1D1A700C23FB1800221A700C235E
:100A4000F918FB1D1B780122180000F009F80C238F
:100A5000FB181A783B681A70C046BD4604B080BDCA
:100A600080B584B000AFB9607A600F23FB18021C18
:100A70001A70134B0F22BA1812781A70104B0122F9
:100A80005A707B689AB20E4B5A800D4BBA689A60C6
:100A90000B4B00229A760A4B0022DA76084B002292
:100AA0001A77074B1800FFF717FE00E0C046044B0B
:100AB0001B7C5BB2002BF9D0C046BD4604B080BDA4
:100AC0008400001080B586B004AF02003960FB1DC1
:100AD0001A703968FB1D18780023029300230193D4
:100AE000002300930023002200F082F8C046BD4698
:100AF00002B080BD90B589B004AFB9607A603B6048
:100B00000F23FB18021C1A703B68DBB27C68B968C3
:100B10000F22BA181078012202920022019200934B
:100B20002300002200F064F8C046BD4605B090BD29
:100B300080B584B000AF39601100FB1D021C1A7033
:100B4000BB1D0A1C1A700C23FB1800221A700C2300
:100B5000FB18BA1D12781A700C23FA183968FB1D9D
:100B60001878012300F004F8C046BD4604B080BDEB
:100B700090B589B004AFB9607A6019000F23FB18F3
:100B8000021C1A700E23FB180A1C1A700E23FB1885
:100B90001B78DAB2402A00D94023DBB27C68B968FE
:100BA0000F22BA18107800220292002201920093BC
:100BB0002300012200F01CF8C046BD4605B090BDE0
:100BC00080B586B004AF0200FB1D1A70FB1D1878BB
:100BD00000230293012301930023009300230022AA
:100BE000002100F005F8C046BD4602B080BDC046F9
:100BF00080B586B000AFB9607A603B600F23FB1808
:100C0000021C1A701423FB1800221A701423FB18FC
:100C100000225A701423FB1800229A70314B0F22C5
:100C2000BA1812781A702F4B00225A702E4B1B687C
:100C30009AB22C4B5A802B4B1422BA189A607B68BC
:100C40005AB2284B9A76274B3A685A612023FB18F0
:100C50001B789AB2234B1A83224B2422BA1812789B
:100C6000DA76204B2822BA1812781A771E4B1B68A6
:100C7000022B09D0032B13D0012B23D1BB68DAB28E
:100C80001423FB181A701DE0BB681B12DAB2142380
:100C9000FB181A70BB68DAB21423FB185A7011E003
:100CA000BB681B14DAB21423FB181A70BB681B1242
:100CB000DAB21423FB185A70BB68DAB21423FB189B
:100CC0009A70C046074B1800FFF706FD00E0C046CB
:100CD000044B1B7C5BB2002BF9D0C046BD4606B06E
:100CE00080BDC046840000100000001080B586B0B2
:100CF00000AF7860396000237B613B68013B3B615A
:100D000018E07B697A68D3181B78FB607B697A6886
:100D1000D3183A6979688A1812781A703B697A6828
:100D2000D318FA68D2B21A707B6901337B613B69D0
:100D3000013B3B617A693B699A42E2DBC046BD46B2
:100D400006B080BD90B587B000AFF860B9607A603A
:100D500000237B6116E07B695A1C7A611A00BB682C
:100D60009C18FB680A21180001F064F80B00DBB244
:100D70003033DBB22370FB680A21180000F074FFE7
:100D80000300FB60FB68002BE5D107E07B695A1C80
:100D90007A611A00BB689B1830221A707A697B68E6
:100DA0009A42F3DB7A69BB6811001800FFF79EFFD7
:100DB0007B69BA68D31800221A707B691800BD4697
:100DC00007B090BD80B588B000AFF860B9607A60B8
:100DD000F86801F00DFB03007B61786901F02AFBE4
:100DE000031C191CF86801F07DF9031CFB61B9684C
:100DF0007B6900221800FFF7A5FF03003B617B68B9
:100E0000002B1FD03B69BA68D3182E221A7000231A
:100E1000BB6108E00D49F86901F050F8031CFB6163
:100E2000BB690133BB61BA697B689A42F2DBF8693E
:100E300001F0DEFA3B690133BA68D3187A68190009
:100E4000FFF780FFC046BD4608B080BD00002041CE
:100E500080B582B000AF0200FB1D1A70FB1D1B782D
:100E60001A0000213C20FFF763FEC046BD4602B0D9
:100E700080BDC04680B582B000AF78600A00FB1C20
:100E80001A70FB1C1B787A6800213C20FFF770FE6B
:100E9000C046BD4602B080BD80B582B000AF020042
:100EA000FB1D1A70FB1D1B781A0040213C20FFF728
:100EB0003FFEC046BD4602B080BDC04680B582B090
:100EC00000AF78600A00FB1C1A70FB1C1B787A6864
:100ED00040213C20FFF74CFEC046BD4602B080BD1D
:100EE00080B58CB000AF0823FA181D4B1000190014
:100EF0001E231A0002F07AFE0823FB181E21180098
:100F0000FFF7B8FF0023FB621FE0FB6ADBB2503B38
:100F1000DAB23B1D1A703B1D00225A703B1D0022A5
:100F20009A703B1D03211800FFF7A4FF0023BB624A
:100F300005E00020FFF7B0FFBB6A0133BB62BB6A6C
:100F40007F2BF6DDFB6A0133FB62FB6A072BDCDDDE
:100F5000AF20FFF77DFFC046BD460CB080BDC04648
:100F60008C44000080B582B000AF00237B6039E084
:100F70007B68DBB24E3BDAB23B001A703B000C22BE
:100F80005A703B0011229A703B0003211800FFF7B2
:100F900071FF7A681300DB009B18DB001A00154B09
:100FA000D3181E211800FFF789FF7A681300DB00B1
:100FB0009B18DB001E331A000E4BD3181E2118009D
:100FC000FFF77CFF7A681300DB009B18DB003C33E3
:100FD0001A00084BD3180C211800FFF76FFF7B682D
:100FE00001337B607B68042BC2DDC046BD4602B086
:100FF00080BDC046A400001080B500AFFFF7B2FF6F
:10100000C046BD4680BDC04680B584B002AF020078
:10101000FB1D1A70FB1D1B780B2B6ED89A00394BE9
:10102000D3181B689F4600F089F8374A20230093A5
:101030001E230521142000F0DBFBFFF7DDFF5CE041
:1010400000F07CF8314B180000F00EF93049314BBC
:101050001122180000F01CFAFFF7CEFF4DE02B4BD9
:10106000180000F001F900F069F829492A4B002224
:10107000180000F00DFA2649284B0822180000F04D
:1010800007FA2349264B1822180000F001FAFFF74F
:10109000B3FF32E0234B180000F0E6F800F04EF802
:1010A0001B49214B0022180000F0F2F918491F4B90
:1010B0001422180000F0ECF9FFF79EFF1DE01C4B16
:1010C000180000F0D1F800F039F81A4B0A22142168
:1010D000180000F0DDF90D4B180000F0C5F8164BB4
:1010E00018223221180000F0D3F9FFF785FF04E041
:1010F00000F024F8FFF780FFC046C046BD4602B0AE
:1011000080BDC046F444000004000010E83E00002A
:101110000E270000AC440000BC440000C84400009E
:10112000D044000028410000DC440000E4440000FA
:1011300064420000EC440000F044000080B500AFC1
:10114000B4235A00034B0021180002F08DFDC04665
:10115000BD4680BDA400001080B500AFB4235A0086
:10116000034BFF21180002F07FFDC046BD4680BD45
:10117000A400001080B584B000AF0200BB1D1A802F
:101180003B1D0A1C1A80BB1D1B88472B28D83B1D02
:101190001B88272B24D83B1D1B88DB089BB21A0019
:1011A0001300DB009B18DB001A00BB1D1B88D31843
:1011B000FB603B1D1B8807221340BB600A4AFB688B
:1011C000D3181B785AB20121BB6899400B005BB25F
:1011D00013435BB2D9B2044AFB68D3180A1C1A70D5
:1011E000C046BD4604B080BDA400001080B584B0E8
:1011F00000AF0200BB1D1A803B1D0A1C1A80BB1DDC
:101200001B88472B2AD83B1D1B88272B26D83B1D24
:101210001B88DB089BB21A001300DB009B18DB0065
:101220001A00BB1D1B88D318FB603B1D1B880722BF
:101230001340BB600B4AFB68D3181B785BB20121DB
:10124000BA6891400A0052B2D24352B213405BB224
:10125000D9B2044AFB68D3180A1C1A70C046BD46AE
:1012600004B080BDA400001080B582B000AF7860EB
:101270000B4B7A681A607B681A78094B1A717B6885
:101280005A78074B5A717B689A78054B9A717B683C
:10129000DA78034BDA71C046BD4602B080BDC04665
:1012A0000C02001080B58EB000AFB9607A600F23D9
:1012B000FB18021C1A70754B5B7907221340DBB2D6
:1012C000002B00D073E00F23FB181B786F4A927934
:1012D0009B1A6E4A127911006C4A5279D208D2B226
:1012E0004A43534304337B6100237B6356E000236E
:1012F0003B634AE00023FB6241E0644B1B68796971
:101300003A6B8918614A127910007A6B42438A1845
:101310009B181B781A00FB6A1A4113000122134024
:1013200015D0BB689AB23B6B9BB2D31898B27B6B5B
:101330009BB2DB009AB27B689BB2D3189AB2FB6A6D
:101340009BB2D3189BB21900FFF714FF14E0BB68DF
:101350009AB23B6B9BB2D31898B27B6B9BB2DB000B
:101360009AB27B689BB2D3189AB2FB6A9BB2D3182D
:101370009BB21900FFF73AFFFB6A0133FB62FB6A7D
:10138000072BBADD3B6B01333B63404B1B791A00E3
:101390003B6B9A42AEDC7B6B01337B633B4B5B79EF
:1013A000DB08DBB21A007B6B9A42A0DC69E00F23FA
:1013B000FB181B78354A92799A1A344B1B7919001D
:1013C000324B5B794B43002B00DA0733DB1053437E
:1013D0000433BB622D4B1A68BB6AD3181B787B623F
:1013E00007233B620023FB6145E00023BB6139E03A
:1013F0007A6A3B6A1A411300012213400FD0BB687E
:101400009AB2FB699BB2D31898B27B689AB2BB6957
:101410009BB2D3189BB21900FFF7ACFE0EE0BB687D
:101420009AB2FB699BB2D31898B27B689AB2BB6937
:101430009BB2D3189BB21900FFF7D8FE3B6A013B61
:101440003B623B6A002B0ADA07233B62BB6A01332B
:10145000BB620E4B1A68BB6AD3181B787B62BB69F0
:101460000133BB61094B5B791A00BB699A42BFDC4F
:10147000FB690133FB61054B1B791A00FB699A423A
:10148000B3DCC046BD460EB080BDC0460C020010A5
:1014900080B586B000AFF860B9607A60FB6818006C
:1014A00002F028FC03003B61BB681B4A934207D152
:1014B0001A4B1B791A003B6953434822D31ABB606D
:1014C000BB68174A93420AD1144B1B791A003B6937
:1014D00053434822D31A00D501335B10BB6000236D
:1014E0007B6111E0FB685A1CFA6018780B4B1B7982
:1014F0001A007B695A43BB68D3187A681900FFF752
:10150000D1FE7B6901337B617A693B699A42E9DBF1
:10151000C046BD4606B080BD0F2700000C0200107B
:101520000E27000080B598B000AFF860B9607A600F
:101530003B605F23FB1800221A700023BB65002369
:101540007B65FB68002B2BD13B68002B1FD0002351
:10155000BB650AE01423FA18BB6DD3186822BA18C9
:1015600012781A70BB6D0133BB653B685A1EBB6DA8
:101570009A42EFDC1423FA18BB6DD31830221A708C
:10158000BB6D01331422BA180021D15492E0142308
:10159000FB1830221A701423FB1800225A7089E0BD
:1015A000FB68002B28DA5F23FB1801221A70FB6806
:1015B0005B42FB6020E0FB680A21180000F03AFC67
:1015C0000B00DBB23033D9B23023FA18BB6DD3181D
:1015D0000A1C1A70BB6D0133BB65FB680A21180039
:1015E00000F028FC0B001A00FB689B1A0A21180067
:1015F00000F03AFB0300FB60FB68002BDBDC3023D0
:10160000FA18BB6DD31800221A705F23FB181B78E1
:10161000002B03D01423FB182D221A705F23FB1814
:101620001A78BB6DD2183B689A421DDA00233B65DD
:1016300010E05F23FB181A783B6DD3181422BA18F8
:10164000682179180978D1547B6D01337B653B6D36
:1016500001333B653A68BB6DD21A5F23FB181B78D8
:10166000D21A3B6D9A42E4DC0023FB6413E05F2353
:10167000FB181A78FB6CD2187B6DD318B96DFA6C15
:101680008A1A013A30217918895C1422BA18D15487
:10169000FB6C0133FB64FA6CBB6D9A42E7DB5F23A2
:1016A000FB181A78BB6DD2187B6DD3181422BA18A8
:1016B0000021D1547A68B9681423FB181800FFF789
:1016C000E7FEC046BD4618B080BDC04680B590B0AC
:1016D00000AFB860F9603B60FB1D1A703F23FB1838
:1016E00000221A7000220023B868F96800F0BEFBDF
:1016F000031E03D03F23FB1801221A70B868F96853
:1017000002F040F9FB1D1A781423FB181900FFF7AB
:1017100059FB4C23FB181B782E2B17D00023BB63DF
:1017200011E01423FA18BB6BD3181B782E2B07D1AA
:101730001423FA18BB6BD3184C22BA1812781A70FB
:10174000BB6B0133BB63BB6B1A2BEAD95423FB1869
:101750001B78202B40D03F23FB181B78002B23D075
:101760001423FB182D221A7001237B6318E0142325
:10177000FA187B6BD3181B78202B06D01423FA1889
:101780007B6BD3181B782D2B07D11423FA187B6B96
:10179000D3185422BA1812781A707B6B01337B630A
:1017A0007B6B1A2BE3D917E000233B6311E0142372
:1017B000FA183B6BD3181B78202B07D11423FA1887
:1017C0003B6BD3185422BA1812781A703B6B013352
:1017D0003B633B6B1A2BEAD9BA6C39681423FB18AC
:1017E0001800FFF755FEC046BD4610B080BDC0468C
:1017F00080B588B000AFF860B9607A603B600023C4
:10180000FB6150E0FB692C4A134004D5013B0822E0
:101810005242134301337B610023BB613CE0FB690F
:10182000002B00DA0733DB101A003B685A43BB6910
:10183000D3181A007B689A181323FB1812781A70B1
:101840001323FB181B7801217A6991400A00134089
:10185000002B0FDDFB689AB2BB699BB2D31898B21C
:10186000BB689AB2FB699BB2D3189BB21900FFF711
:1018700081FC0EE0FB689AB2BB699BB2D31898B2A8
:10188000BB689AB2FB699BB2D3189BB21900FFF7F1
:10189000ADFCBB690133BB61BA693B689A42BEDBF0
:1018A000FB690133FB61FA69BB6A9A42AADBC04655
:1018B000BD4608B080BDC0460700008090B583B02B
:1018C00000AF3A1D022300214820FFF713F93B1D0A
:1018D0005B781A000123134018D03B1D1B785B0175
:1018E00019B23B1D5B78DB08DBB21AB2BB1D0A43A1
:1018F0001A80BB1D00229B5E1B4A93421EDDBB1D4E
:10190000BA1D128819490A431A8017E03B1D1B783B
:101910001B0119B23B1D5B781B09DBB21AB2BB1D60
:101920000A431A80BB1D00229B5E114A934205DDCB
:10193000BB1DBA1D12880F490A431A80BB1D002225
:101940009B5E180001F088FF00220B4B01F00AFD9E
:1019500003000C001800210002F014F8031C181CEE
:10196000BD4603B090BDC046FF0F000000E0FFFF82
:10197000FF07000000F0FFFF0000B03FB0B500AF70
:10198000FFF79CFF031C181C01F0A8FF00220E4B60
:1019900001F0E8FC03000C001800210000220B4BB2
:1019A00001F0BCF803000C00180021000022084BD5
:1019B00000F088FD03000C001800210001F0E2FF98
:1019C000031C181CBD46B0BD00002240000014409E
:1019D0000000404080B584B000AF0200FB1D1A70CB
:1019E000FB1DFA1D127803210A401A70154B0122C3
:1019F0001A600C23FA18022301214820FFF77AF815
:101A00000C23FB185B783F221340DAB20C23FB183F
:101A10005A700C23FB185B785AB2FB1D1B789B0194
:101A20005BB213435BB2DAB20C23FB185A700C237F
:101A3000FA18022301214820FFF79AF8C046BD4654
:101A400004B080BD0000001080B584B000AF02007B
:101A5000FB1D1A70154B01221A600C23FA18022381
:101A600001214820FFF746F80C23FB185B78102271
:101A70009343DAB20C23FB185A700C23FB185B78E3
:101A80005AB2FB1D1B781B015BB213435BB2DAB287
:101A90000C23FB185A700C23FA180223012148204A
:101AA000FFF766F8C046BD4604B080BD00000010D8
:101AB00080B582B000AF0D4B01221A60FA1D0123E0
:101AC00001214820FFF716F8FB1D1B780122134364
:101AD000DAB2FB1D1A70FB1D1B781A000121482089
:101AE000FFF726F8C046BD4602B080BD00000010DA
:101AF00080B582B000AF0D4B01221A60FA1D0123A0
:101B000001214820FEF7F6FFFB1D1B7801229343BD
:101B1000DAB2FB1D1A70FB1D1B781A000121482048
:101B2000FFF706F8C046BD4602B080BD00000010B9
:101B300080B582B000AF184B01221A60FA1D012354
:101B400001214820FEF7D6FFFB1D1B788022524260
:101B50001343DAB2FB1D1A70FB1D1B781A0001211A
:101B60004820FEF7E5FF1A20FEF7AAFCFA1D012324
:101B700001214820FEF7BEFFFB1D1B787F22934307
:101B8000DAB2FB1D1A70FB1D1B78002BEBD0C04690
:101B9000BD4602B080BDC0460000001080B586B0D2
:101BA00004AFFEF7FBFAFEF72BFBFEF79FFC264B7C
:101BB0001800FEF769FCFEF70FFB244B1800FEF738
:101BC000B5FB234B1800FEF7B1FB224B1800FEF7C4
:101BD000ADFB214B01221A60FFF782F90020FFF7CD
:101BE00033FFFFF765FFFEF7F7FAFFF7A1FFFFF7F7
:101BF00065FE031C7B60194B1800FFF735FBFFF7F0
:101C00009DFA786801F06AFE202303930023029373
:101C10002E2301930023009300230222FFF756FD99
:101C20000F4B1800FFF720FB0E4B1E223C21180023
:101C3000FFF72EFCFFF7E0F9FEF7D8FAFA239B0036
:101C40001800FEF73DFCCEE780BB000024450000F5
:101C500034450000444500000000001064420000CC
:101C6000E83E00005445000003460B437FD40022A9
:101C700043088B4274D303098B425FD3030A8B4220
:101C800044D3030B8B4228D3030C8B420DD3FF228A
:101C9000090212BA030C8B4202D31212090265D058
:101CA000030B8B4219D300E0090AC30B8B4201D30B
:101CB000CB03C01A5241830B8B4201D38B03C01A52
:101CC0005241430B8B4201D34B03C01A5241030BC9
:101CD0008B4201D30B03C01A5241C30A8B4201D37A
:101CE000CB02C01A5241830A8B4201D38B02C01A25
:101CF0005241430A8B4201D34B02C01A5241030A9C
:101D00008B4201D30B02C01A5241CDD2C3098B4280
:101D100001D3CB01C01A524183098B4201D38B01FD
:101D2000C01A524143098B4201D34B01C01A5241A0
:101D300003098B4201D30B01C01A5241C3088B42E5
:101D400001D3CB00C01A524183088B4201D38B00D0
:101D5000C01A524143088B4201D34B00C01A524172
:101D6000411A00D201465241104670475DE0CA0F49
:101D700000D04942031000D34042534000229C4609
:101D800003098B422DD3030A8B4212D3FC22890113
:101D900012BA030A8B420CD3890192118B4208D3E9
:101DA000890192118B4204D389013AD0921100E04B
:101DB0008909C3098B4201D3CB01C01A524183095F
:101DC0008B4201D38B01C01A524143098B4201D38C
:101DD0004B01C01A524103098B4201D30B01C01AB7
:101DE0005241C3088B4201D3CB00C01A5241830831
:101DF0008B4201D38B00C01A5241D9D243088B4287
:101E000001D34B00C01A5241411A00D20146634629
:101E100052415B10104601D34042002B00D549428D
:101E2000704763465B1000D3404201B5002000F0CC
:101E300005F802BD0029F8D016E770477047C04684
:101E40008446101C62468C46191C634600E0C0465E
:101E50001FB501F01DFA002801D40021C8421FBDA2
:101E600010B501F071F94042013010BD10B501F01C
:101E70000FFA002801DB002010BD012010BDC04674
:101E800010B501F005FA002801DD002010BD012089
:101E900010BDC04610B501F097F9002801DC002004
:101EA00010BD012010BDC04610B501F08DF900280D
:101EB00001DA002010BD012010BDC046F0B5574624
:101EC0004E4645464300E0B446028846760A1F0E59
:101ED000C40F002F47D0FF2F25D0002380259A461E
:101EE0009946F600ED042E437F3F434642465D028D
:101EF000D20F5B006D0A1B0E904640D0FF2B39D0ED
:101F000080220020ED00D20415437F3BFB1842469F
:101F10005746591C62408C4607430F2F5CD86F49C7
:101F2000BF00C9598F46002E45D108239A46063B6B
:101F30009946DAE7424602282DD0032800D1C3E0B3
:101F4000012800D0A2E0002500260240D4B276028B
:101F5000ED05760A2E43E407264330001CBC90466C
:101F60009946A246F0BD002E1AD104239A46033B9F
:101F70009946BAE72A00511E8A41901CC6E7012003
:101F8000002DC3D0280001F013FE431F76309D4082
:101F900043420020BAE70124FF2514400026D6E77B
:101FA000300001F005FE431F9E400023763047427B
:101FB0009A46994699E70C239A46093B994694E735
:101FC00080260024F603FF25C1E735004846B2E726
:101FD000350022004846AEE72904090C0800370CFA
:101FE0003604360C2C0C7943704367437443060C5B
:101FF00064183619B14203D9802149028846474402
:102000000004000C310409188D01681E8541890EF9
:102010002943350CED19AD010D43290104D50123E8
:1020200069081D4063460D4319007F31002925DDF5
:10203000680704D00F202840042800D00435280168
:1020400003D5274980330D401900FE29A3DC012464
:10205000AD016E0A1440CDB279E78020C00306427C
:1020600007D0054205D128434602760A4446FF259B
:102070006DE706437602760AFF2568E70124611AB8
:102080001B2905DD14400025002660E76346CBE7E9
:102090002E002023CE40591A8D406B1E9D412E43A9
:1020A000730704D00F233340042B00D00436730190
:1020B00004D5012401251440002648E70124B60177
:1020C000760A1440002542E780260124F6032E43B9
:1020D0007602760A1440FF2539E7C04658450000CD
:1020E000FFFFFFF7F8B54A024E0043024400240EFA
:1020F000C50F9B09360EC90F9209FF2E00D183E050
:1021000001204140A01BA9425CD0002800DC95E0E2
:10211000002E1CD1002A00D081E05A0704D00F22E3
:102120001A40042A00D004335A013BD50134FF2C55
:1021300000D191E001209B015B0AE4B205405B0203
:10214000E4055B0AED0723432B431800F8BDFF2C81
:10215000E3D08021C9040A431B2800DD90E016006B
:102160002021C640081A8240511E8A4132439B1AE0
:102170005A0115D59B019E09300001F019FD053863
:10218000864084426CDC041B330020200134E34091
:10219000041BA640721E964100243343BDE70D0088
:1021A0005A07BCD1DF0801231D40FF2C33D1002F7B
:1021B00000D190E08022D20313003B435B025B0A14
:1021C000FF24BCE700284FDD002E2ED0FF2CA4D02A
:1021D0008025ED042A431B2800DD97E0160020250A
:1021E000C640281A8240501E824132439B185A0131
:1021F000D5D50134FF2C6DD001227B481A405B08F5
:10220000034013430D0088E7002A00D07AE777E700
:10221000031EC5D100257B025B0AE4B28FE70138BB
:102220000028A4D0FF2C97D177E7002A00D174E7CB
:1022300001380028DAD0FF2CCDD16EE7002821D15B
:10224000601CC0B2012858DD80279E1AFF04374069
:102250002FD0D61A0D008FE701231D4000236EE713
:10226000624B241A334058E7002851D1601CC6B293
:10227000012E33DDFF282DD09B185B0804004CE7AE
:10228000012274E7002C1AD0FF2E1FD08024E40412
:10229000404223431B2800DD96E01D002024C5405A
:1022A000201A8340581E83412B43D31A34000D005B
:1022B0005EE7002E00D05FE700250024ABE7002B8F
:1022C00044D0C0430028F0D0FF2EE3D11300FF24F8
:1022D0000D0022E70D00FF24002330E7002C5DD124
:1022E000002B7DD0002A00D117E79B185A0100D49B
:1022F00056E73E4A040013400FE7002C1ED1002B86
:102300002FD1002A65D013000D0006E701226DE7EA
:10231000002C1FD1002B59D0C04300280BD0FF2E1A
:102320004FD01B285EDC1D002024C540201A8340AE
:10233000581E83412B439B18340058E7002B1CD1B7
:10234000002A49D013000D00FF24E6E613003400F4
:102350000D00E2E6FF2E34D08024E4044042234303
:10236000DFE7002A00D1D8E68027981AFF0407404B
:1023700000D14DE7D31A0D00CFE6FF24002A00D18B
:10238000CBE68020DB08C003034204D0D20802421F
:1023900001D113000D00DB00FF24BEE6002B10D09E
:1023A000FF24002A00D1B8E68020DB08C0030342E6
:1023B00003D0D208024200D11300DB000D00FF243D
:1023C000ABE61300FF24A8E601236EE713003400F8
:1023D000A3E6002700251EE780270025FF03E9E686
:1023E00013009AE60123A6E7FFFFFF7DFFFFFFFB37
:1023F0004302590A4300C20F1B0E00207E2B0EDD44
:102400009D2B0DDC802000040143952B0BDC9620D6
:10241000C31AD9400B005842002A00D11800704757
:10242000034BD018FBE7963B99400B00F3E7C046FF
:10243000FFFFFF7F70B5002830D0C317C5185D407F
:10244000C40F280001F0B4FB9E231B1A962B0DDC51
:102450009622D21A95406A02520AD8B25202C00598
:10246000520AE40702432243100070BD992B19DC85
:102470009922D21A9540124A2A40690704D00F21A6
:102480000D40042D00D00432510103D50C4B1A40ED
:102490009F231B1A9201520AD8B2DFE700240020C2
:1024A0000022DBE705222E00121AB921D6402A00AD
:1024B000C91A8A40551EAA4135001543DBE7C046BC
:1024C000FFFFFFFBF8B556465F464D464446F0B465
:1024D0000F00FD0FAA4609037C002E005F00450F88
:1024E000490A7F0D2943C5001803BC46400A570F0F
:1024F000640DDB0F3843D2009A4500D1AAE066464E
:10250000A61B002E00DCFFE06346002B39D1030040
:10251000134300D0D9E06B0709D00F232B40042BC5
:1025200005D02B1DAB42AD416D4249191D000B0278
:1025300000D482E0CA4B01349C4200D1FEE00A0084
:102540005646C84BED081A40500764055202054331
:10255000120B640D002112030B0D1B056405120BF9
:102560001A436308C04CF60714401C436400640817
:102570003443280021003CBC90469946A246AB4615
:10258000F8BDB74B9C42C6D080231B041843382E9D
:1025900000DDEBE01F2E00DD1EE120239B1B9C468F
:1025A00003006746BB40984613004746F3403B4351
:1025B0006746BA40571EBA4113430200F240EB1A75
:1025C0009D42B6411D008A1A7642911B0B0231D5FD
:1025D0004A02560A002E00D1B4E0300001F0E8FAB9
:1025E0000300083B1F2B00DDB5E020222900D21A92
:1025F000D1409E400A009D4032439C4200DDB1E044
:102600001C1B631C1F2B00DDD5E0202114002800BB
:10261000C91A8C40D8408D400443DA40681E854179
:1026200011002543002476E74146314300D134E2CE
:10263000310045466B0700D06FE756464807ED0866
:10264000C9080543864B9C4235D00A036405120B2A
:10265000640D7FE76346E31A9B46002B00DC8BE0AA
:102660006746002F3CD07E4FBC4200D153E7802705
:102670003F0438435B46382B00DCF7E00243501E32
:1026800082410020D2B253194218AB4289411D0049
:10269000494289180B02CDD5714B01349C4200D1BF
:1026A0003DE101206F4A6B080A4028401843D507D6
:1026B000054351082FE72B000B4300D1CBE18023CA
:1026C0001B030B431A03120B44E7013E002E6DD18E
:1026D000AE1AB5429B41091A5B42C91A350075E72B
:1026E0000700174300D116E701235B429C46E344F1
:1026F0005B46002B00D0E0E0AA18AA429B410918D3
:102700005B4259181500C5E7002E75D1661C760589
:10271000760D012E00DCF3E0AE1AB0464545BF4110
:102720000E1A7F42F61B370200D48FE0551BAA42D7
:10273000B641411A76428E1B9A464BE75646002216
:10274000002507E7280001F033FA20300300083B9A
:102750001F2B00DC49E72A002838824000259C42D4
:1027600000DC4DE73F49E41A1140D4E60243501E15
:102770008241D3B2002222E7002B00D0F3E0631C99
:102780009C465B055B0D012B00DC9FE0344B9C45B8
:1027900000D1C3E0AA180918AA428041404241185A
:1027A000CD075208154349086446B4E62C4B9C42B9
:1027B00000D0ECE6AFE611001F3CE1400C00202BFE
:1027C00000D17FE04021CB1A9A4015436A1E954103
:1027D0000021254300242DE733000700203BDF4084
:1027E0003B00202E70D04027BE1BB0400243501E3D
:1027F000824113430022E2E6002C4FD0184CA4453E
:1028000000D1ABE08024240476422143382E00DD41
:10281000DFE01F2E00DD43E12027BC1BA1460C009A
:102820004F46BC40A0462C004746F4403C434F4630
:10283000BD406F1EBD41F1402C43151BAA42924181
:10284000411A5242891A64469A46BFE641464546B5
:10285000314300D0BEE6002600240025F2E6C04643
:10286000FF070000FFFF7FFFFFFF0F801F2B59DCDA
:102870002027FF1ABC46070063469F405B46B946C7
:102880001700DF40B8464F4643461F4363469A4011
:10289000531E9A415B463A43D840F4E60C002C4361
:1028A0005CD0F643002E55D1551BAA42A441411AD3
:1028B0006442091B9A46644688E6964FBC4200D0A3
:1028C000D8E628E6002280E700208FE70B002B43A4
:1028D000002C00D0C2E0002B00D101E10300134323
:1028E00000D118E6AB18AB42B64109187642711810
:1028F0000A0200D409E1884A1D00114064460AE634
:10290000002C5BD10E002E4300D08AE00100114361
:1029100000D1C2E0010015009A46FCE564460021A2
:1029200000258FE620235B429C46DC44634607007B
:10293000DF405B46BC46202B00D1ACE040235F4625
:10294000DB1B98400243501E8241634613431A002A
:10295000002098E66F4CA44500D057E70100150011
:1029600064469A46D7E5002C39D10C002C436ED032
:10297000DB43002B1AD0674CA44568D0382B00DD10
:10298000A4E01F2B00DDAEE020240F00E41AA740D6
:10299000B9462F00DF40B846A3464F46444627437A
:1029A0005C46A5406C1EA541D9403D43AD189542FB
:1029B0009B4109185B42591864466BE60C002C4396
:1029C00015D1010011437BD0010015009A46514CEE
:1029D000A1E50D43691E8D410021ECB22DE74D4C60
:1029E000A44534D0802424045B422143C6E704007C
:1029F00014434ED0ED084C072C438025C9082D0305
:102A0000294208D0C6082E4205D1D20841071143F9
:102A10000C009A463100620FC900E50011433D4C9D
:102A200079E50600164300D175E5AE1AB046454576
:102A3000BF410E1A7F42F61B370200D4F4E5551B46
:102A4000AA42B641411A7642891B9A4663E50100C3
:102A5000150064465FE5002200257BE5002B3BD096
:102A60000300134315D0ED084B072B438025C908FD
:102A70002D03294207D0C4082C4204D141070B0082
:102A80002100D2081343C9005A0F1143DD00214C25
:102A900041E5204C3FE5002054E700260025D1E524
:102AA00034000F00203CE7403C00202E2BD0402774
:102AB000BE1BB1400D43691E8D4100212C43BCE675
:102AC000802100260903134C0025BBE50D43691E38
:102AD0008D410021EDB269E7010015000D4C1AE5AA
:102AE0000100150017E51C000F00203CE7403C00EA
:102AF000202B0CD04027FB1A99400D43691E8D41B5
:102B00000021254352E70021D4E71D0092E5002172
:102B1000F3E7C046FF070000FFFF7FFFF0B5564612
:102B20004D4644465F46F0B41D000E034C00CB0FEB
:102B300087B0070092468146360B640D98466AD0EE
:102B40006D4B9C4235D08022430F12041343F60094
:102B50001E43C3009946694B00279C4600236444EA
:102B600002932B0368001B0BED0F51469B46400D53
:102B7000009500D178E0604B98426CD05B46DA005B
:102B80004B0F802109040B4313439B465346D90046
:102B90005A4B9C46002360444246201A6A409246A3
:102BA00001901F430F2F00D9B0E05548BF00C05916
:102BB0008746374300D088E0002399460233082730
:102BC00000260293CDE74346B34649460093029B55
:102BD000009A9246022B00D0BFE100215346012209
:102BE000002689461A40444B002136030C0D24056B
:102BF000360B2643434C1B0526401E437600D20766
:102C0000760816434846310007B03CBC90469946CA
:102C1000A246AB46F0BD330003434FD0002E00D197
:102C2000BCE1300000F0C4FF03000B3B1C2B00DDB7
:102C3000ADE11D220100D31A08393A008F408E40C1
:102C4000DA40B9461643304B00279C4600236044C7
:102C50004442029385E753465A4613432CD100233E
:102C600000219B46023397E70B4320D05B46002BA5
:102C700000D19EE1584600F09BFF03000B3B1C2B4C
:102C800000DD8FE102005946083A91408B461D2134
:102C9000CB1A5146D9400B0059460B4351469B462F
:102CA0009140194B9C4660444042002374E7002346
:102CB00000219B4601336FE703236DE7002399460C
:102CC00001330427002602934BE703230C270293CA
:102CD00047E70122D51A382D00DCB0E153461A40EF
:102CE00000210023002689467EE70023802699469E
:102CF00000223603004B77E7FF07000001FCFFFFCF
:102D000098450000FFFF0F80F30300005E4500D9E7
:102D100072E100D16DE1019B4D46013B019300231F
:102D2000340002935B461E020B0E1E430B020393FC
:102D3000330C994633041B0C49462000009300F0E5
:102D4000ADFE009B370043430600494620009846ED
:102D500000F02AFF2C0C09040C43A04509D9E41902
:102D6000731EA74200D95CE1A04500D859E1023E9C
:102D7000E4194346E41A4946200000F08FFE0300A0
:102D8000009A80465343494620009B4600F00CFFC2
:102D90002A040904120C0A4393450DD94346D2195B
:102DA000013B974200D93AE1934500D837E102232D
:102DB0005B429C46D219E0445B46D21A4346360435
:102DC00033439B460399180C0B0C1D000593090413
:102DD0005B46090C0C001B041B0C44430491594333
:102DE0006B4368431B190D0CEB189C4203D98024DC
:102DF0006402A44660441C0C09041B04090C20183E
:102E00005D18824200D2DEE000D1D7E0161A029BA4
:102E10009C465D1BAC459B415B42F61AB74200D114
:102E200006E14946300000F039FE009B04004343B0
:102E300049463000984600F0B7FE2E0C09040E43B8
:102E4000B04509D9F619631EB74200D9F3E0B04581
:102E500000D8F0E0023CF6194346F31A4946180040
:102E6000029300F01BFE009B060043434946029874
:102E7000984600F099FE2D0409042D0C0D43A84539
:102E800009D9ED19731EAF4200D9D6E0A84500D884
:102E9000D3E0023EED192404210043463143049E51
:102EA000059A3000ED1A0B040C0C1B0C58436643BA
:102EB000534354439A19030C9B189E4203D9802212
:102EC0005202944664441A0C00041B04000C1419AA
:102ED0001B18A54250D34DD001231943964A019B9C
:102EE00094466344002B00DCF3E64A0709D00F2226
:102EF0000A40042A05D00A1D8A42894149428B446E
:102F000011005A46D20108D55A468C4B1A409346B6
:102F10008022D2009446019B6344894A934200DD9B
:102F20005BE65A46C908500708435602514601223B
:102F30005B058146360B5B0D0A4055E680231B037B
:102F40001E4211D05A461A420ED15E461E43360327
:102F5000360B2A0089467B4B46E6032B00D1E1E085
:102F6000012BBBD11A40BBE61E433603360B42464B
:102F7000744B39E6002BB1D07D194A1EAF4252D9AD
:102F80001100A542A8D1039A9A42A5D1A6E7030051
:102F90003E00283B9E400023994654E600F008FE80
:102FA000203041E603005246283B9A4000219346D8
:102FB00077E6504600F0FCFD20305EE6029B0026DE
:102FC000AB4200D323E7039E0299B446614488468E
:102FD000B045B6415B467642F619B218013B029104
:102FE000974213D290424FD800D18EE0161A9B46DA
:102FF0000DE7894500D28EE674084B46F60735008A
:103000005B081D434B46DB0702938BE69742EDD1ED
:103010000399029CA142E5D93E1A9B46F7E69846E1
:10302000CAE61E00A5E6AC423ED874D0110053E7B4
:103030000121494252E71C000EE71E002BE71F2D1D
:103040003CDC20230A0058465B1B9840EA4099402C
:103050000243481E81415E461143EE404B0709D0B2
:103060000F230B40042B05D00B00191D99429B41E7
:103070005B42F61833023CD55346012200211A4028
:10308000002601238946AFE502235B429C46039C50
:10309000E344A446029B63449846A045B641764269
:1030A000F6190293B218B1E603988A1E41008142D4
:1030B000B6417642F619AD19039161E71F225242DB
:1030C000D31A5A46DA401300202D29D04022584600
:1030D000551BA8400143481E814107200B4318405F
:1030E0000026002809D00F2200261A401900042AC1
:1030F000BBD10B0070077602360BDB080343994601
:10310000012253461A4000236EE502998D42BBD836
:103110009B4600267BE603989842C5D3110032E710
:103120000020D7E780265B4636031E433603360B66
:10313000009A8946034B57E5FF030000FFFFFFFE9F
:10314000FE070000FF070000F0B55F4656464D46FB
:103150004446F0B41F035C00DB0F9A46194B0E0384
:103160004D00C90F8046360B6D0D8B4691463F0BC7
:10317000640D9D4219D0134B9C421BD00123A542E4
:1031800006D018003CBC90469946A246AB46F0BD1E
:10319000BE42F6D1C845F4D1D34510D0002DF0D1B0
:1031A000304303005A1E9341EBE7310001230143F2
:1031B000E7D1E0E73A430123002AE2D1DEE700232A
:1031C000DFE7C046FF070000F0B55F4644465646BD
:1031D0004D46F0B41F033C0B2C4F0E034D00A3468D
:1031E0005C008446360B6D0DC90F9046640DDB0FF5
:1031F000BD422BD0254FBC422ED0002D0ED13043E6
:103200000700814678427841002C17D15F463A4347
:1032100014D14B460020002B0AD006E0002C02D12E
:103220005846024301D099421AD00123484218431C
:103230003CBC90469946A246AB46F0BD0028F2D071
:1032400058425841012240421043F1E737000743FA
:10325000D0D002204042EBE75F461743CDD0F8E7DD
:10326000A542E2DC05DB5E45DFD808D000205E45E4
:10327000DED248424841012340421843D8E7C445C2
:10328000D3D80020C445F4D3D2E7C046FF070000DE
:10329000F0B55F464D4644465646F0B41C03240B39
:1032A000A4462F4C0F034D005E00C90F80463F0B14
:1032B0006D0D8B469146760DDB0FA54220D0284C34
:1032C000A64222D0002D12D1384344424441002E60
:1032D00020D0002C0DD05C42634101245B421C4392
:1032E00020003CBC90469946A246AB46F0BD002E5D
:1032F00017D05B4519D05B465C4201231C43EFE7C6
:10330000390002240143EBD1D9E76146022411437D
:10331000E6D1D7E761460A43DBD100240028DFD09D
:10332000E9E761460A43E4D1E5E7B54203DD01225E
:103330005C421443D4E7B542CDDB6745DBD809D006
:1033400000246745CCD259464C4261410124494290
:103350000C43C5E7C845CED80024C845F3D3BFE722
:10336000FF070000F0B55F4656464D464446F0B4B0
:103370000D0399464E002B0B87B0070092468046FE
:103380009B46760DCC0F002E69D06D4B9E4235D0FA
:103390005B468022DD001204430F13432B439B4600
:1033A000C3009846674B00279C4600236644019360
:1033B0004A4615035000D20F53462D0B400D91463F
:1033C00000D176E05E4A90426CD080225B0F1204FE
:1033D00013435C4AED0094461D4353460022DB0034
:1033E000604449463618701C6140029017430F2F05
:1033F00000D9AFE05448BF00C759BF465B461F43E2
:1034000000D088E000239B469846023308270193AA
:10341000CEE74946022A6AD0032A00D109E2012AEE
:1034200000D0BBE111400022002300259046CCB221
:1034300000212D030A0D12052D0B1543434A1B05D0
:1034400015401D436D00E4076D08254340462900E3
:1034500007B03CBC90469946A246AB46F0BD03433C
:1034600052D05B46002B00D18AE1584600F0A0FB09
:1034700003000B3B1C2B00DD7BE11D22D31A3A001D
:1034800001005D46DA4008398D4013008F402B4320
:103490009B46B8462E4B00279C460023604446427C
:1034A000019385E752462A432CD1002500230222AE
:1034B00097E752462A4321D0002D00D154E128003D
:1034C00000F076FB03000B3B1C2B00DD46E11D21C9
:1034D000CB1A51460200D9405346083A95409340D2
:1034E0000D431B4A944660444042002279E7012480
:1034F00000220C40124B0025904699E7002500233E
:1035000001226EE703226CE700239B4698460133B5
:10351000042701934CE703230C27019348E700237A
:103520008025984600242D03054B81E75D464346E0
:10353000019A6FE75D4643462100019A6AE7C0465B
:10354000FF07000001FCFFFFD8450000FFFF0F80D0
:10355000F30300004246120C91461A0C9446424670
:1035600017044A461B041B0C5A43604690464A46C1
:1035700042431000039262461C003F0C7A437C4396
:1035800042440192220C9246019A5244904506D937
:103590008246802040028046C24450460390100C70
:1035A000049048462404240C1204121905922A0C93
:1035B0002D042D0C68432C00824648467C43504322
:1035C0008146200C8046574357444744BA4503D9A7
:1035D000802040028046C144380C3F04B84648442D
:1035E0002404240C01900498A044404404905846BC
:1035F000000C814658460404200C824607004846C9
:103600005F434C46434360466043644683465046AE
:103610004443380C8446E4186444A34203D980230D
:103620005B029C46E34448463F04230C3F0C2404C1
:10363000E419574668436F4384464D465046554308
:103640004243380C814662444A445B44944503D962
:10365000802040028446654403983F0483460498D2
:103660003F0C8446E344C3458041404282461004F7
:1036700084460198674484466744A344BC46A345F6
:10368000A4419946D44464428742BF41D445804115
:10369000E144A04699459B417F424042C8440743CC
:1036A000120CBA18A045A4415F423B006442234378
:1036B000D71843467D19DB0D6D021D435B465A0248
:1036C000059B1A43531E9A415B46DB0D1A43434642
:1036D0005B021343EA0107D501225C081340234330
:1036E000EA07029E13436D08574AB218002A4BDDC1
:1036F000580709D00F201840042805D0181D9842FB
:103700009B415B42ED180300E80104D54F4A154088
:103710008022D200B2184E48824200DDE7E6012442
:10372000DB08680718436D02530580462D0B5B0DBF
:103730000C407DE6802259461203114208D0154202
:1037400006D115432D0398462D0B4C46414B6FE691
:103750005D4615432D032D0B3E4B69E60300554690
:10376000283B9D400023BCE6504600F021FA203063
:10377000A8E60300283B9F400023BB46984689E605
:1037800000F016FA203073E60124A61A382E07DD61
:1037900000220C4000230025904649E6029EA3E744
:1037A0001F2E20DC20222C001800921BF040944099
:1037B00093400443581E83411C43F540630709D0DE
:1037C0000F232340042B05D023001C1D9C42924153
:1037D0005242AD182B021FD5012400220C400123B8
:1037E0000025904624E61F202C004042821AD44037
:1037F000202E1CD04022961BB5402B43581E8341DF
:103800000720234318400025002809D00F22002557
:103810001A401C00042AD8D1230068076D022D0B22
:103820000124DB08034398460C40002300E60025F2
:10383000E3E780220124120315432D0398462D0B44
:103840000C40044BF4E5C046FF030000FFFFFFFE01
:10385000FE070000FF07000070B5002830D0C31736
:10386000C4185C40C50F200000F0A2F9174B184A9D
:103870001B1AD21A1F2A18DD164AD21A94400022A7
:1038800024035B05240B5B0D0021100024030A0DAB
:103890001205240B1443104A1B0514401C436400FA
:1038A000ED0764082C43210070BD210091400A00FF
:1038B0000B21081AC4405B052403240B5B0DE3E7CE
:1038C0000025002300240022DEE7C0461E0400007D
:1038D0003304000013040000FFFF0F804200120EAB
:1038E000511C4302C9B270B55D0AC40F012915DD30
:1038F000E02189008C466D071B0B624400212800E3
:103900000D0D2D052B431C4D52052B405208134322
:103910005B00E4075B082343190070BD002A15D142
:10392000002D1FD0280000F043F90A281DDC0B23CE
:103930002A001B1ADA4013000200153295400F4A84
:103940001B03121A52051B0B520DD7E7002D06D090
:1039500080221B0B120313436D07094ACEE7084A66
:103960000023CBE700220023C8E703000B3B9D4068
:103970002B000025E3E7C046FFFF0F80890300000E
:10398000FF0700004B0070B55E0D0C03751C640A48
:10399000420F6D052243C90FC4006D0D012D2ADDB4
:1039A0003B4BF318FE2B1ADC002B42DD8001451E39
:1039B000A841D2001043620F0243500704D00F20E9
:1039C0001040042800D004328020C004104021D0D0
:1039D0000133FF2B03D09201520ADBB201E0FF2337
:1039E00000225202520ADB0513435B00C9075B0841
:1039F0000B43180070BD002E07D01443EFD0802079
:103A0000D20080040243FF23D7E722430023002A89
:103A100003D00522D208FF2B03D05202520ADBB298
:103A2000DFE7002A32D08020C00302435202520A4C
:103A3000D7E71800173014DB8020000402431E2053
:103A4000C01A1F280FDC2500124BF3189D406E1E74
:103A5000B5419A402B0013432200C2401A43002371
:103A6000ABE70023D5E702256D42EB1A1500DD40D8
:103A7000202809D0084BF3189A401443621E944141
:103A8000220000232A4398E70022F6E70022A8E755
:103A900080FCFFFF82FCFFFFA2FCFFFF0022430827
:103AA0008B4274D303098B425FD3030A8B4244D306
:103AB000030B8B4228D3030C8B420DD3FF22090248
:103AC00012BA030C8B4202D31212090265D0030B07
:103AD0008B4219D300E0090AC30B8B4201D3CB03FD
:103AE000C01A5241830B8B4201D38B03C01A52413F
:103AF000430B8B4201D34B03C01A5241030B8B4241
:103B000001D30B03C01A5241C30A8B4201D3CB022B
:103B1000C01A5241830A8B4201D38B02C01A524110
:103B2000430A8B4201D34B02C01A5241030A8B4213
:103B300001D30B02C01A5241CDD2C3098B4201D32B
:103B4000CB01C01A524183098B4201D38B01C01AA9
:103B5000524143098B4201D34B01C01A5241030920
:103B60008B4201D30B01C01A5241C3088B4201D3CF
:103B7000CB00C01A524183088B4201D38B00C01A7C
:103B8000524143088B4201D34B00C01A5241411AA3
:103B900000D20146524110467047FFE701B50020B0
:103BA000FEF74CF902BDC0460029F7D076E7704712
:103BB0001C2101231B04984201D3000C10391B0A5D
:103BC000984201D3000A08391B09984201D3000921
:103BD000043902A2105C40187047C0460403020278
:0C3BE000010101010000000000000000D5
:103BEC0070B50F2A32D90C0004430B00A40731D155
:103BFC0015000400103D2D0901352D0149191E68D1
:103C0C0026605E6866609E68A660DE681033E660BB
:103C1C0010349942F3D10F2345191340032B1BD9B0
:103C2C001C1F0023A4080134A400CE58EE5004330A
:103C3C009C42FAD103232D1909191A4005D00023EF
:103C4C00CC5CEC5401339A42FAD170BD0500002AC9
:0C3C5C00F5D1FAE70500F2E71A00F8E7DE
:103C680070B583073FD0541E002A3BD0CEB2030064
:103C7800032503E0621E002C34D0140001335A1EC1
:103C880016702B42F6D1032C24D9FF250D402A02A9
:103C980015432A0415430F2C11D92600103E360966
:103CA800013636011A009B19156055609560D5607C
:103CB80010329342F8D10F221440032C0AD9261F40
:103CC800B6080136B6001A009B1920C29342FCD1EF
:103CD80003221440002C05D0C9B21C1919700133F5
:0C3CE8009C42FBD170BD14000300CCE72F
:103CF40010B5830727D00378002B26D003000321B7
:103D040002E01A78002A1CD001330B42F9D1196859
:103D14000F4A104C8A188A4322420FD1043319687F
:103D24000B4A8A188A43224208D104331968084A84
:103D34008A188A432242F1D000E001331A78002A1B
:103D4400FBD1181A10BD0300E1E70020FAE7C046D2
:083D5400FFFEFEFE808080806E
:103D5C0000CA9A3B00E1F5058096980040420F009E
:103D6C00A086010010270000E8030000640000009A
:103D7C000A000000010000007C0700000C0A000093
:103D8C000C0A00000C0A00000C0A00000C0A0000CF
:103D9C000C0A00000C0A0000940700000C0A00003A
:103DAC000C0A00000C0A00000C0A00000C0A0000AF
:103DBC000C0A00000C0A0000D60700000C0A0000D8
:103DCC000C0A00000C0A00000C0A00000C0A00008F
:103DDC000C0A00000C0A0000180800000C0A000075
:103DEC000C0A00000C0A00000C0A00000C0A00006F
:103DFC000C0A00000C0A00005A0800000C0A000013
:103E0C000C0A00000C0A00000C0A00000C0A00004E
:103E1C000C0A00000C0A0000860800000C0A0000C6
:103E2C000C0A00000C0A00000C0A00000C0A00002E
:103E3C000C0A00000C0A00003C0900000C0A0000EF
:103E4C000C0A00000C0A00000C0A00000C0A00000E
:103E5C000C0A00000C0A0000540900000C0A0000B7
:103E6C000C0A00000C0A00000C0A00000C0A0000EE
:103E7C000C0A00000C0A0000640900000C0A000087
:103E8C000C0A00000C0A00000C0A00000C0A0000CE
:103E9C000C0A00000C0A0000860900000C0A000045
:103EAC000C0A00000C0A00000C0A00000C0A0000AE
:103EBC000C0A00000C0A00009E0900000C0A00000D
:103ECC000C0A00000C0A00000C0A00000C0A00008E
:103EDC000C0A00000C0A0000E40900000608205F30
:103EEC000000000000000000002F00000000070090
:103EFC00070000147F147F1400242A7F2A12002349
:103F0C001308646200364955225000000503000076
:103F1C0000001C224100000041221C000014083E3D
:103F2C0008140008083E0808000000A06000000803
:103F3C000808080800006060000000201008040257
:103F4C00003E5149453E0000427F40000042615115
:103F5C004946002141454B31001814127F100027AF
:103F6C0045454539003C4A49493000017109050372
:103F7C0000364949493600064949291E00003636A3
:103F8C000000000056360000000814224100001406
:103F9C0014141414000041221408000201510906E3
:103FAC0000324959513E007C1211127C007F494964
:103FBC004936003E41414122007F4141221C007F95
:103FCC0049494941007F09090901003E4149497AA3
:103FDC00007F0808087F0000417F4100002040411D
:103FEC003F01007F08142241007F40404040007F89
:103FFC00020C027F007F0408107F003E4141413ECD
:10400C00007F09090906003E4151215E007F091914
:10401C0029460046494949310001017F0101003F11
:10402C004040403F001F2040201F003F4038403F91
:10403C0000631408146300070870080700615149F5
:10404C00454300007F414100AA55AA55AA550000DE
:10405C0041417F0000040201020400404040404006
:10406C00000003050000002054545478007F48449D
:10407C00443800384444442000384444487F0038D5
:10408C005454541800087E0901020018A4A4A47CFE
:10409C00007F080404780000447D400000408084C8
:1040AC007D00007F102844000000417F4000007C10
:1040BC0004180478007C080404780038444444381C
:1040CC0000FC242424180018242418FC007C080468
:1040DC00040800485454542000043F444020003C41
:1040EC004040207C001C2040201C003C4030403CC8
:1040FC00004428102844001CA0A0A07C0044645458
:10410C004C440000107C8200000000FF0000000006
:10411C00827C100000000609090600000C102D0D11
:10412C00000000808080808080000000000001037F
:10413C000303030303010000000000000000000063
:10414C00000000000000000000C0C00000000000E3
:10415C00000002868686868686020000000081C3E7
:10416C00C3C3C3C3C381000000FC7A06060606065F
:10417C00067AFC00007EBCC0C0C0C0C0C0BC7E00C3
:10418C0000000000000000000078FC0000000000AF
:10419C0000000000003C7E000000028686868686B9
:1041AC00867AFC00007EBDC3C3C3C3C3C3810000B9
:1041BC000000028686868686867AFC00000081C313
:1041CC00C3C3C3C3C3BD7E0000FC788080808080E5
:1041DC008078FC000000010303030303033D7E0011
:1041EC0000FC7A868686868686020000000081C3E3
:1041FC00C3C3C3C3C3BD7E0000FC7A868686868695
:10420C0086020000007EBDC3C3C3C3C3C3BD7E0012
:10421C000000020606060606067AFC0000000000F6
:10422C0000000000003C7E0000FC7A8686868686B4
:10423C00867AFC00007EBDC3C3C3C3C3C3BD7E006E
:10424C0000FC7A8686868686867AFC00000081C30E
:10425C00C3C3C3C3C3BD7E000E182D0D00000000E8
:10426C00000000000000000000000000103838388A
:10427C00383838383810000000000000000000000A
:10428C000000000000000000000000000000000022
:10429C000000000000000000000000000000000012
:1042AC000000000000000040E0E0400000000000C2
:1042BC00000002060E0E0E0E0E0E0602000000008E
:1042CC00103838383838383838100000000080C0C2
:1042DC00E0E0E0E0E0E0C080000000FCFAF60E0E4A
:1042EC000E0E0E0EF6FAFC0000EFC7830000000065
:1042FC00000083C7EF00007FBFDFE0E0E0E0E0E01C
:10430C00DFBF7F0000000000000000000000F0F89C
:10431C00FC000000000000000000000083C7EF005C
:10432C00000000000000000000001F3F7F000000A4
:10433C0002060E0E0E0E0E0EF6FAFC0000E0D0B8C1
:10434C003838383838383B170F00007FBFDFE0E0D3
:10435C00E0E0E0E0C0800000000002060E0E0E0E51
:10436C000E0EF6FAFC0000001038383838383838A1
:10437C00BBD7EF00000080C0E0E0E0E0E0E0DFBF92
:10438C007F0000FCF8F0000000000000F0F8FC00DA
:10439C00000F173B383838383838BBD7EF000000DF
:1043AC0000000000000000001F3F7F0000FCFAF638
:1043BC000E0E0E0E0E0E06020000000F173B3838C4
:1043CC0038383838B8D0E000000080C0E0E0E0E0D9
:1043DC00E0E0DFBF7F0000FCFAF60E0E0E0E0E0EB4
:1043EC000602000000EFD7BB383838383838B8D060
:1043FC00E000007FBFDFE0E0E0E0E0E0DFBF7F0057
:10440C00000002060E0E0E0E0E0EF6FAFC00000058
:10441C00000000000000000083C7EF000000000057
:10442C000000000000001F3F7F0000FCFAF60E0E9B
:10443C000E0E0E0EF6FAFC0000EFD7BB38383838EB
:10444C003838BBD7EF00007FBFDFE0E0E0E0E0E012
:10445C00DFBF7F0000FCFAF60E0E0E0E0E0EF6FA03
:10446C00FC00000F173B383838383838BBD7EF0012
:10447C00000080C0E0E0E0E0E0E0DFBF7F00000093
:10448C00AED580A83FD300408D14200021007F22A0
:10449C000007A1C8DA1281CFD9F1DB40A4A6000035
:1044AC002D2D2D436F6E6E65637465642D2D2D005F
:1044BC00496E636F6D696E670000000043616C6C40
:1044CC0000000000303932313836383437350000CE
:1044DC0030393231000000003836383437350000BE
:1044EC00323700007E6300002610000040100000F0
:1044FC005E10000094100000BE100000FA100000C6
:10450C00FA100000FA100000FA100000FA10000077
:10451C00FA100000F01000000A2A2A2A2A2A2A2A55
:10452C002A2A2A2A2A2A0A002A20204932432054DD
:10453C00657374202A0A00002A2A2A2A2A2A2A2A7F
:10454C002A2A2A2A2A0A00007E630000D81F0000AB
:10455C00361F0000361F0000341F0000CA1F000069
:10456C00CA1F0000C01F0000341F0000CA1F00003B
:10457C00C01F0000CA1F0000341F0000D01F000025
:10458C00D01F0000D01F00005A2000000C2D00008E
:10459C00DA2B0000E02C0000D02B0000E02C0000F7
:1045AC00EA2C0000E02C0000D02B0000DA2B0000DD
:1045BC00DA2B0000EA2C0000D02B0000C62B0000E8
:1045CC00C62B0000C62B00003C2F00005435000009
:1045DC001434000014340000123400002C35000098
:1045EC002C3500001E350000123400002C35000064
:1045FC001E3500002C35000012340000343500004C
:0C460C0034350000343500003437000065
:104618000200000000000000000000000000000090
:104628000000000040C08000183870E080000000E2
:10463800000000000000F0F8F8F8F8F000000004AE
:104648000C38F0C003073EF88000033EF8C00000B5
:10465800000000001F3F3F3F3F1F00000040603840
:104668001F0780C0F83F0300C0F83E0700000000A5
:104678000000000000000000000000000000040628
:0C468800030130381C0703000000000094
:04000003000000C039
:00000001FF
